:020000040800F2
:10000000D81600209D010008910E0008A5090008DF
:100010008F0E000841020008692D00080000000052
:100020000000000000000000000000008D15000826
:100030008907000800000000490F00084516000865
:10004000B7010008B7010008B7010008B7010008B0
:10005000B7010008B7010008B7010008B7010008A0
:10006000B7010008B7010008B7010008B701000890
:10007000B7010008B7010008B7010008B701000880
:10008000B7010008B7010008B7010008B701000870
:10009000B7010008B7010008B7010008B701000860
:1000A000B7010008B7010008B7010008B701000850
:1000B000B7010008B7010008B7010008B701000840
:1000C000B7010008B7010008B7010008B701000830
:1000D000B7010008B7010008B7010008B916000809
:1000E000B7010008B7010008190F0008B7010008A0
:1000F000B7010008B7010008B7010008B701000800
:10010000B7010008B7010008B7010008B7010008EF
:10011000B7010008B7010008B7010008B7010008DF
:10012000B7010008B7010008B7010008B7010008CF
:10013000B7010008B7010008B7010008B7010008BF
:10014000B7010008B7010008B70100080D0F00084B
:10015000B7010008B7010008B7010008B70100089F
:10016000B7010008B7010008B7010008B70100088F
:10017000B7010008B7010008B7010008B70100087F
:10018000B7010008B7010008DFF80CD000F018F83C
:1001900000480047BD300008D816002006488047B8
:1001A00006480047FEE7FEE7FEE7FEE7FEE7FEE75C
:1001B000FEE7FEE7FEE7FEE75D160008890100089E
:1001C000064C074D06E0E06840F0010394E80700A4
:1001D00098471034AC42F6D3FFF7DAFF2C570008EB
:1001E0004C57000870B501EB020410F8015B15F0E4
:1001F000070301D110F8013B2A1106D110F8012B99
:1002000003E010F8016B01F8016B5B1EF9D12B07BD
:1002100005D40023521E0FD401F8013BFAE710F871
:10022000013B02F10202A1EB030303E013F8015BBF
:1002300001F8015B521EF9D5A142D6D3002070BD52
:10024000FEE710B50A460C0601F07F0303EB8301BD
:1002500000EBC10102D501F58E7101E001F55D7180
:10026000D2090B704A7002F06BFB002010BD0A46E9
:1002700010B5090602F07F0306D503EB830100EBFE
:10028000C10101F58E7105E002EB820100EBC101B5
:1002900001F55D7100248C700B70D2094A7002F078
:1002A00036FB002010BD70B50C460E0601F07F0530
:1002B00005EB850100EBC10102D501F58E7101E06E
:1002C00001F55D71E4090D704C708A60CB7000D04F
:1002D000CD80022B01D100220A7102F0EFFA00203A
:1002E00070BD10B501F07F0404EB840100EBC10187
:1002F00001F55D714B61CA6000238B614B700C701E
:10030000C378012B00D10A6114F0FF0F03D002F073
:1003100049FB002010BD02F063FAFAE700690022F1
:1003200061F30A1201681143016070470A4610B573
:10033000090602F07F0306D503EB830100EBC10140
:1003400001F58E7105E002EB820100EBC10101F5C0
:100350005D7101248C700B70D2094A7002F00AFBA7
:10036000002010BD70B511F07F0404EB840100EB98
:10037000C10101F58E714FF001054D700C70CA601E
:100380000A614FF00002C1E9053203D002F00AFB16
:10039000002070BD02F024FAFAE700002DE9F041D8
:1003A0000646002502F023FC074655E0F80751D029
:1003B0003069EAB20369416BD14006EB820201F079
:1003C0000101926943EAC11194680C40E1071AD017
:1003D0000124426B04FA05F18A43426306EB85006F
:1003E000806984601F48E9B20068426830469047DF
:1003F000F078012807D135B996F81101042802D107
:10040000304602F049FA200704D506EB850008249F
:1004100080698460E00604D506EB850010248069BD
:100420008460600604D506EB850040248069846002
:10043000A00704D506EB85000224806984602006AD
:1004400008D52946304600F062F906EB8501802088
:10045000896988606D1C7F08002FA7D10120BDE845
:10046000F0810000A80000202DE9F041064600249C
:1004700002F0C3FB0746DFF8988043E0F8073FD05F
:10048000E1B2304602F0BFFB0546C00725D006EBBF
:1004900084000125416D8D60F17801290CD1406DFA
:1004A000016904EB840006EBC000C1F31201D0F82F
:1004B0007C23511AC0F88C13D8F80000E1B202680E
:1004C00030469047F078012807D134B996F81101E9
:1004D000052802D1304602F0DFF9A80704D506EB63
:1004E00084000225406D8560280709D5D8F80000F2
:1004F00081683046884706EB84010820496D886092
:10050000641C7F08002FB9D10120BDE8F0810000F4
:10051000A800002070B50646C068816921F010016E
:100520008161F068056A05F00F0000EB800006EBC2
:10053000C004C5F3434004F55D74072821D2DFE809
:1005400000F0202004202020150047F6F07005421E
:1005500017D0C5F30A152A463046E16802F05BFB66
:10056000E0682844E060A069284409E0082206F217
:10057000CC51304602F04FFBA069C5F30A11084484
:10058000A061F068816941F010018161012070BDB6
:1005900038B5044600208DF8000094F812018DF85B
:1005A0000000154800684169204688472069806836
:1005B000E2684FF400615161A17AD1B1C00718D04F
:1005C00094F81501012814D19DF80000032810D1DA
:1005D000D4F80C01016841F001010160D4F80C016C
:1005E000016841F0030101600448016841F006011F
:1005F0000160012038BD0000A800002010ED00E0DF
:1006000070B50446006900250126416821F001010A
:1006100041602946204602F0A3FA0020FF2106E0AF
:1006200004EB800293699960526D9160401C62787E
:100630008242F5D821694FF0FF3088612846216950
:1006400066F30F0066F31F40C861216945F00B0097
:100650004861216945F00B0008612069016821F4B7
:10066000FE610160204602F017F9E1684FF4805006
:10067000486103480068016920468847012070BD31
:10068000A800002070B5044602F0D6FA012200232B
:1006900084F8122184F81431194640250EE000BF79
:1006A00001EB810004EBC00000F58E704270017018
:1006B000C180C370C0E90253491C4361607888421D
:1006C000EED800210EE000BF01EB810004EBC00278
:1006D00002F55D7253701170D180D370C2E902537C
:1006E000491C536160788842EED8204602F052F8E7
:1006F000204601F04BFF0021204602F0FDFA204683
:1007000001F084FF2046BDE8704002F005BA2DE9F3
:10071000F0470D46064601EB850006EBC00404F5E4
:100720008E74D4E90501421AA068904200D20246B4
:10073000D21C970806EB850917E0A0EB0108A0681A
:10074000404500D2804608F1030087081FFA88F36D
:10075000EAB23046E16802F0F3FAE16801EB080022
:10076000E060A16901EB0800A061D9F81800806978
:1007700080B2B84205D9D4E90501814201D20028EE
:10078000DBD10120BDE8F087704700000149086017
:1007900070470000143C01404FF0204202EB800003
:1007A0000029016802D041F0010101E0014A114035
:1007B00001607047FEFF0F0030B5D0E90112114310
:1007C000D0E903231A431143426903681143826944
:1007D0001143C2691143026A1143426A1143826A9A
:1007E0001143C26A1143026B11434FF0204242F899
:1007F00023108168082906D1016802EB81010B688A
:1008000043F040030B60416BD1E9003443EA041329
:100810008C688D89240244EA054423430C8A43EA08
:1008200004530C7D896943EA04630B43016802EBBE
:1008300081014B60C16AB1F5804F07D000686FF04D
:10084000704102EB8000C0F8041130BD816B00687C
:10085000D1E9003443EA04138C680D8A240244EA87
:10086000055423430C7D896943EA046302EB80004D
:100870000B43C0F8043130BDF0B500230124032739
:100880000D6804FA03F21540954242D1D0F800C039
:100890005E0007FA06F52CEA050CC0F800C091F8D6
:1008A00004C0D0F800E00CFA06FC4CEA0E0CC0F8CC
:1008B00000C091F804C0BCF1010F02D0BCF1020FDE
:1008C0001FD1D0F808C02CEA050CC0F808C091F878
:1008D00005C0D0F808E00CFA06FC4CEA0E0CC0F893
:1008E00008C0D0F804C02CEA020CC0F804C042686A
:1008F00091F806C00CFA03FC1FFA8CFC42EA0C02C9
:100900004260C268AA43C260CA79C568B2402A433D
:10091000C2605B1C102BB3D3F0BD4B07DB0E9A40BB
:10092000C90810B500EB8100016A0F249C40A14367
:100930000162016A1143016210BD0000F0B4174961
:100940000A78012A0AD0CA680025B2F5006F00D1E2
:10095000CD60D1E902329A4202D10D70F0BC7047ED
:1009600002D9C2F5006301E0A3EB02031C460B6150
:10097000402B96B205D940234032403CC1E90324C4
:1009800003E02244C1E90325A3B201220A7004490D
:100990008A19F0BC8121FFF7E5BC0000B0000020FF
:1009A000FF080020FEE730B50546002440F23F1165
:1009B000204600F04DFA4FF0D041222008804FF43D
:1009C00096304D80641C8442FBD330BD70B5064622
:1009D00040F23F14084D08E020222146304600F046
:1009E000A7F868688088201A84B26968601C80B2A1
:1009F00089888842F0D270BD6C0100201CB50121AD
:100A0000782000F0A3FA4CF23370009002208DF8A9
:100A100004008DF8050000208DF80600404C8DF88C
:100A2000070069462046FFF727FF0C2200212046D9
:100A3000FFF773FF0C2201212046FFF76EFF0C2207
:100A400004212046FFF769FF0C2205212046FFF70D
:100A500064FF0C2208212046FFF75FFF0C220921CA
:100A60002046FFF75AFF0C220A212046FFF755FFC8
:100A70000C220E212046FFF750FF0C220F212046AA
:100A8000FFF74BFF4FF68070264C009069462046DA
:100A9000FFF7F2FE0C2207212046FFF73EFF0C2253
:100AA00008212046FFF739FF0C2209212046FFF7D5
:100AB00034FF0C220A212046FFF72FFF0C220B21C6
:100AC0002046FFF72AFF0C2211462046FFF725FF9C
:100AD0000C220D212046FFF720FF0C220E2120467C
:100AE000FFF71BFF0C220F212046FFF716FF012006
:100AF0000D4C009069462046FFF7BEFE0C220021F7
:100B00002046FFF70AFF2015084C00906946204652
:100B1000FFF7B2FE0C220A212046FFF7FEFE1CBDA5
:100B2000000C024000100240001402400018024075
:100B3000064B10B45B68203AD2B21C68DB88534382
:100B400004EB430210BC00F01FB800006C01002051
:100B5000F0B50D46074640F23F140A4E08E0214624
:100B60003846FFF7E5FF70688088201A84B26D1C54
:100B70002A78002A05D07168601C80B28988884272
:100B8000EDD2F0BD6C0100202DE9F043904689467E
:100B90000026054600F05CF94FF0D047184C29E0DC
:100BA0002220388000201BE00C23B1FBF3F34FEA36
:100BB000C30C802303FA0CF338F816C0034113EA80
:100BC0000C0F01D10C2906D9012383401CEA030F25
:100BD00003D10C2901D9618800E021887980401C6B
:100BE00091888142E0D86D1CADB24946284600F09C
:100BF0002FF9761C6268D088B042D1D8BDE8F08366
:100C00006C01002000B5012197B0084600F0B6F94C
:100C100005200F9000200921CDE910011490042136
:100C20001590CDE9001012901021CDE9020113902A
:100C300004900590069009020790CDE908010A90FA
:100C40000B900C900FA80D900E906846FFF7B4FD26
:100C500001210420FFF7A0FD17B000BD0148406846
:100C6000704700006C01002008484FF6FF7181803A
:100C70000021C180018141818181C18101220270F5
:100C800041708170C17001827047000048010020EE
:100C900010B5FFF7E9FFBDE810400020FFF783BE65
:100CA00070B505468AB01F2000F0CAF8FFF7D6FFDE
:100CB0000446002069464FF4A072202302E00B5442
:100CC000401CC0B2A688B2FBF6F6761E8642F6DC61
:100CD000A088B2FBF0F00844002100F8011CE08875
:100CE0006946C0F1F00080B2FFF732FFE088294684
:100CF000C0F1F00080B2FFF72BFF002000F0A0F859
:100D00000AB070BD70B588B00021034600E0491CF0
:100D100013F8012B002AFAD11A2900D91A2100222E
:100D200020246B469C54521C1B2AFBD30022C1F189
:100D30001B0404E0855C02EB5406521C9D558A425C
:100D4000F8D30020FFF72FFE104800F08DF8FFF7D2
:100D500085FF04464FF6FF75284600F08BF81F20EC
:100D600000F06EF80020FFF731FEE0886946FFF7DB
:100D7000EFFEE08805EA4000FFF728FE002000F0C3
:100D80005FF8034800F070F808B070BD7C010020E7
:100D9000840100202DE9F0470024FFF75FFF234D79
:100DA0000646234F688908281AD22989884217D312
:100DB00000EB800101EBC00007EB8000408E00F0EB
:100DC00059F86889F28800EB800101EBC00107EB5C
:100DD0008101BDE8F047C01C424390B2FFF7B8BEA6
:100DE0002989884201D2093080B2083885B2B846D4
:100DF0004FF009096119B1FBF9F209FB121000EB80
:100E0000800101EBC00108EB8107788E00F032F819
:100E1000F088E21C5043394680B2FFF799FE641C0B
:100E2000E4B2092CE6D3BDE8F087000048010020B9
:100E3000001100204FF0D041088048887047000022
:100E400001B5BDF800000149488008BD6C010020D3
:100E50000B4600B50146202000F014F81946212069
:100E60005DF804EB00F00EB80149486070470000DF
:100E70006C01002001B5BDF800000149088008BDE3
:100E80006C0100204FF0D042108051807047FEE787
:100E90007047000070B50F21C478027801234FF02D
:100EA000E026E4B1124C246804F4E064C4F5E06484
:100EB000C4F30724C4F10405E1404478AC408578CC
:100EC0000D4025430B4C29011155007800F01F01FE
:100ED0008B40400906EB8000C0F8003170BD02F085
:100EE0001F008340500906EB8000C0F8803170BDC0
:100EF0000CED00E000E400E002490843024908600C
:100F0000704700000000FA050CED00E0014800F019
:100F100067BE0000BC010020094810B5807A48B1C6
:100F20000848016821F00601016000F097FB0448C1
:100F300001F0F7FEBDE810404FF48020FFF726BC1B
:100F4000BC01002010ED00E070470000044A0029B9
:100F5000116801D0014300E0814311607047000037
:100F600030380240044A0029116801D0014300E0F2
:100F7000814311607047000034380240044A002960
:100F8000116801D0014300E0814311607047000007
:100F900038380240044A0029116801D0014300E0BA
:100FA000814311607047000040380240044A002924
:100FB000116801D0014300E08143116070470000D7
:100FC0004438024070B5204A1168204C11F00C01E1
:100FD00004D01F4E042903D0082903D004601BE06D
:100FE000066019E01849091F0B68C3F380550B68A8
:100FF00003F03F0315B1B6FBF3F301E0B4FBF3F3E9
:101000000C680968C4F388146343C1F30141491CA7
:101010004900B3FBF1F1016011680F2303EA1111DC
:101020000C4B5C5C0168E14041601468072505EAEF
:1010300094241C5D21FA04F48460126805EA52329B
:101040009A5CD140C16070BD083802400024F400B1
:1010500040787D015A0100202DE9F84F00200090D2
:10106000FFF7CCFCFFF7CEFD052001F09BFF002031
:10107000FFF7E0FEA0F513414FF480774FF4E065F1
:1010800040F2022341F2B07640F2371840F23919AB
:101090004FF4E85A40F23F1B41F218040090203907
:1010A0007ED1F901E520FFF7EDFE01210020FFF7D9
:1010B000E9FE39460120FFF7E5FE29460220FFF749
:1010C000E1FE41F230010320FFF7DCFE00210420A5
:1010D000FFF7D8FE19460820FFF7D4FE00210920AB
:1010E000FFF7D0FE00210A20FFF7CCFE00210C20E4
:1010F000FFF7C8FE00210D20FFF7C4FE00210F20DE
:10110000FFF7C0FE00211020FFF7BCFE00211120D8
:10111000FFF7B8FE00211220FFF7B4FE00211320D4
:10112000FFF7B0FE142001F03DFF31461020FFF71D
:10113000A9FE41461120FFF7A5FE052001F032FF70
:1011400049461220FFF79EFE052001F02BFF514675
:101150001320FFF797FE13212920FFF793FE0520A8
:1011600001F020FF00212020FFF78CFE002121202C
:10117000FFF788FE07213020FFF784FE072131208A
:10118000FFF780FE07213220FFF77CFE0721352084
:10119000FFF778FE07213620FFF774FE294600E0AE
:1011A00068E03720FFF76EFE29463820FFF76AFE19
:1011B00029463920FFF766FE29463C20FFF762FEEC
:1011C0004FF4F8513D20FFF75DFE00215020FFF75E
:1011D00059FEEF215120FFF755FE00215220FFF765
:1011E00051FE59465320FFF74DFE4FF41C5160202D
:1011F000FFF748FE01216120FFF744FE00216A202D
:10120000FFF740FE00218020FFF73CFE00218120F7
:10121000FFF738FE00218220FFF734FE00218320F3
:10122000FFF730FE00218420FFF72CFE00218520EF
:10123000FFF728FE10219020FFF724FE00219220C6
:10124000FFF720FE03219320FFF71CFE4FF4887167
:101250009520FFF717FE00219720FFF713FE0021CE
:101260009820FFF70FFE21460320FFF70BFE40F208
:101270007311EDE0A0F5134125397DD10121002046
:10128000FFF700FE39460120FFF7FCFD294602204A
:10129000FFF7F8FD21460320FFF7F4FD00210420AD
:1012A000FFF7F0FD19460820FFF7ECFD00210920AB
:1012B000FFF7E8FD00210A20FFF7E4FD00210C20E4
:1012C000FFF7E0FD00210D20FFF7DCFD00210F20DE
:1012D000FFF7D8FD00211020FFF7D4FD00211120D9
:1012E000FFF7D0FD00211220FFF7CCFD00211320D5
:1012F000FFF7C8FD142001F055FE31461020FFF71E
:10130000C1FD41461120FFF7BDFD052001F04AFE59
:1013100049461220FFF7B6FD052001F043FE514675
:101320001320FFF7AFFD13212920FFF7ABFD0520A8
:1013300001F038FE00212020FFF7A4FD002121202C
:10134000FFF7A0FD07213020FFF79CFD40F202319E
:101350003120FFF797FD40F2051319463220FFF7C1
:1013600091FD40F2062529463520FFF78BFD40F61A
:1013700008063146362000E06DE0FFF783FD294680
:101380003720FFF77FFD40F204513820FFF77AFD48
:1013900007213920FFF776FD19463C20FFF772FD43
:1013A00031463D20FFF76EFD00215020FFF76AFD1A
:1013B000EF215120FFF766FD00215220FFF762FD6B
:1013C00059465320FFF75EFD4FF427416020FFF799
:1013D00059FD01216120FFF755FD00216A20FFF72B
:1013E00051FD00218020FFF74DFD00218120FFF7F6
:1013F00049FD00218220FFF745FD00218320FFF7F2
:1014000041FD00218420FFF73DFD00218520FFF7ED
:1014100039FD10219020FFF735FD00219220FFF7C4
:1014200031FD03219320FFF72DFD4FF488719520A6
:10143000FFF728FD00219720FFF724FD00219820C9
:10144000FFF720FD21460320FFF71CFD40F233117A
:101450000720FFF717FD0348A0F108014860BDE829
:10146000F88F0000740100202DE9FC4188460446F5
:101470002B492B48091D50F8240051F8241008432B
:101480000121FFF763FD2CB925480121001F0068E9
:10149000FFF780FD2248234E083810F81420001F63
:1014A00030F8141056F82400FFF737FA1C48371D9F
:1014B000801F10F81420001F30F8141057F8240073
:1014C000FFF72BFA00208DF8060001208DF80700A9
:1014D0001348022510388DF8045030F8140000909D
:1014E0008DF8055056F824006946FFF7C5F90C48F9
:1014F0008DF804500E38694630F81400009057F803
:101500002400FFF7B9F9351F414655F8240000F0D3
:1015100035F955F82400012100F0E8F8BDE8FC8118
:10152000E0560008900100201CB504460E48012139
:1015300050F82400FFF70AFD0B4800210A3830F864
:101540001400009001208DF804008DF806108DF82D
:10155000070002208DF805000448694650F8240071
:10156000FFF78AF91CBD0000105700089C010020FD
:10157000044951F820104A69034B33F810004240E7
:101580004A6170479C010020065700087047000020
:101590000CB500202749019000900A6842F480327F
:1015A0000A604FF4A0630A6802F400320092019AC4
:1015B000521C0192009A12B9019A9A42F3D10A6818
:1015C000920334D5012000901A484030026842F05E
:1015D000805202601848026842F480420260154856
:1015E000083002680260026842F400420260026849
:1015F00042F4A0520260031F104A1A600A6842F0C7
:1016000080720A600A689201FCD50D4A40F20561B9
:101610001160016821F003010160016841F00201DD
:1016200001600168C1F381010229FAD10CBD00906B
:101630000CBD000000380240007000400854400714
:10164000003C024010B54FF4FC60FFF713FCBDE80E
:1016500010404FF6FF70FFF70DBC0000124810B5A8
:10166000016841F4700101601048016841F0010116
:1016700001600E4A00210832116002680C4B1A40CA
:101680000260031D0B4A1A60026822F48022026085
:1016900006480C300160FFF77BFF03494FF0006004
:1016A0008039086010BD000088ED00E0003802407D
:1016B000FFFFF6FE1030002410B50B4C40F2255110
:1016C000204600F024F818B10021084601F0EEFB96
:1016D0000821204600F014F8002804D02046BDE878
:1016E000104000F0A7B810BD0048004000298189D3
:1016F00002D041F4005101E021F400518181704792
:101700000246002012880A4200D00120704730B5FE
:1017100001F01F0201240025C1F3421304FA02F272
:10172000012B0FD0022B0FD0838A4FEA11210088A2
:10173000134204FA01F400EA040001D000B10125CB
:10174000284630BD8389F0E7038AEEE710B5C1F380
:10175000421301F01F040121A140012B07D0022BED
:1017600007D01430002A026805D00A4304E00C3088
:10177000F8E71030F6E78A43026010BD7FB50446F3
:10178000008A0D4620F44051E88808432082A08951
:1017900041F20C618843A9882A8911436A8902436E
:1017A0001143A181A08A20F44071A8890843A08236
:1017B0006846FFF707FC1D48844202D01C4884425B
:1017C00001D1039800E00298A1890904002900EBE7
:1017D000C00101EB0010296802DA4FEA410101E083
:1017E0004FEA8101B0FBF1F26420B2FBF0F14FEA65
:1017F00001114FEA11136FF018056B4302EB8302DE
:10180000A3891D044FF0320306D503EBC202B2FBDD
:10181000F0F000F0070005E003EB0212B2FBF0F07D
:1018200000F00F00084320817FBD00000010014040
:10183000001401408088C0F308007047C1F308011C
:101840008180704710B5D0F8E42552689047002099
:1018500010BD10B5134600240A462146FEF741FD8F
:10186000204610BD10B5134600240A462146FEF757
:1018700079FD204610BD10B504468021FEF756FDC7
:1018800000212046FEF752FD2046BDE8104001F041
:1018900003B810B5C0F894230323C0F8902380F850
:1018A0001131134600240A462146FEF71AFD204650
:1018B00010BD70B505460024052085F811012346AA
:1018C000224621462846FEF70CFD284600F0E4FF9C
:1018D000204670BD10B5C0F83C210223C0F8382165
:1018E00080F81131134600240A462146FEF73AFDDE
:1018F000204610BD70B505460024042085F811016E
:101900002346224621462846FEF72CFD284600F0B5
:10191000C3FF204670BD000070B5054641B1D5F843
:10192000E40542698AB395F81201032846D047E0DE
:1019300095F81101002605F58E74022833D1E1696E
:10194000A06881420FD9081AE061E878012803D124
:10195000D4E902100844E060A08BE16882B2284616
:10196000FFF780FF1FE0216AB1FBF0F200FB1212CB
:1019700062B981420AD3606A814207D200221146CD
:101980002846FFF76FFF66620DE016E0D5F8E40524
:10199000C16829B195F81201032801D1284688476A
:1019A0002846FFF786FF95F81601012808D105485B
:1019B00000682969486085F8166101E0284690476B
:1019C000002070BDAC00002070B5054641B1D5F8CF
:1019D000E40582690AB395F8120103282CD02DE0A2
:1019E00095F8110105F55D74032827D1E169A06818
:1019F000814213D9081AE061E878012803D1D4E9BB
:101A000002100844E060E169A068814200D2084603
:101A100082B22846E168FFF71CFF0FE0D5F8E40525
:101A2000016929B195F81201032801D12846884798
:101A30002846FFF75FFF01E028469047002070BD71
:101A400010B50446D0F8E80540698047012084F8C5
:101A50001501002010BD10B50446D0F8E8058069D6
:101A60008047D4F8E40500214268204690470020D2
:101A700084F8150110BD38B5044648880D46010AA2
:101A800004295CD2DFE801F05B021420D4F8EC15E5
:101A9000A0780A68694690470146E888402803D044
:101AA00094F81201012837D10820ADF8000037E082
:101AB000D4F8E415A0788A6A694690470146022066
:101AC0004870C4F8F01527E0C0B2062837D2DFE826
:101AD00000F003080D12171CD4F8EC15A0784A6822
:101AE00017E0D4F8EC15A0788A6812E0D4F8EC1569
:101AF000A078CA680DE0D4F8EC15A0780A6908E06F
:101B0000D4F8EC15A0784A6903E0D4F8EC15A07875
:101B10008A69694690470146BDF8000000280DD04B
:101B2000E88800280AD0BDF80020904200D910466D
:101B3000ADF8000082B22046FFF7CCFE38BD294642
:101B40002046FFF798FE38BD70B5002300281DD051
:101B50000446002502E06D1CEDB2641C2678002EC0
:101B6000F9D1022404EB45041480CC545B1C0322FD
:101B7000CA545B1C002406E0CA545B1CDAB2401C49
:101B80008C54521CD3B20278002AF5D170BD2DE9D5
:101B9000F0411D46174688460446069E00F092FC1A
:101BA000C4F8E45504F5BD65414685E8C00020460B
:101BB000FEF768FD2868006880472046BDE8F041D0
:101BC00000F06CBC10B5D0F8E415096A8847002015
:101BD00010BD10B5D0F8E415496A8847002010BD43
:101BE0002DE9F0470446002500F0F3FF00287DD0E2
:101BF000204600F0F7FF060079D0300303D52046D9
:101C0000FEF732FC0546700303D52046FEF7C6FBFF
:101C10000543B0074FF0000A02D5E1680220486191
:101C20004C4F4FF00109002E17DAA07A30B1D4F8EA
:101C30000C01D4F80C1120F0030008602069416801
:101C400021F0010141603868816920468847E168D8
:101C50004FF00040486145F00105300503D52046AE
:101C6000FEF796FC0543300708D53868C168204662
:101C70008847E1680820486145F00105F00603D572
:101C80002046FEF747FC0543F00403D52046FEF747
:101C9000B7FC0543B0041AD5204600F083FDE06888
:101CA000D0F80C80204600F07BFF032847D084F852
:101CB0000290402128F47050A18000F5A050E16806
:101CC000C860E1684FF40050486145F00105F0023A
:101CD00009D53868C16920468847E1684FF480100B
:101CE000486145F00105B0020CD501E024E024E094
:101CF0003868016A20468847E1684FF4001048615F
:101D000045F00105700009D53868416A20468847CA
:101D1000E1684FF08040486145F0010570070BD540
:101D2000E0684668700703D53868816A20468847AE
:101D3000E068466045F001052846BDE8F08784F874
:101D400002A04FF4007128F47050A18000F51050EB
:101D5000B5E70000A800002090F8CC250A7090F8A4
:101D6000CD254A7090F8CE2590F8CF3502EB0322AE
:101D70004A8090F8D02590F8D13502EB03228A8072
:101D800090F8D22590F8D33502EB032292B2CA80A4
:101D90000121C0F8402180F81111704710B50023CF
:101DA000044640221946FEF77EFA00234022802195
:101DB0002046FEF778FA012084F81201D4F8E815DD
:101DC000A07849688847002010BD10B50446D0F8B7
:101DD000E80500698047032084F81201002010BD47
:101DE00010B5D0F8E415C96901B18847002010BDCD
:101DF00010B50446D0F8E405026820469047D4F8B0
:101E0000E80580688047002010BD000070B50A46D4
:101E10001A4D897804462970012905D894F81201D1
:101E2000022807D003280CD02046BDE87040114698
:101E3000FFF721BDA1B184F81011032084F812012D
:101E40000BE091B194F81001884209D00146204678
:101E5000FFF7F8FC297884F810112046FFF7C8FF37
:101E60002046BDE87040FFF745BD022084F812010E
:101E700084F810112046FFF7E5FCF1E76C00002024
:101E800010B504464888012201280FD0022831D11C
:101E9000888810F0FF0F2DD121694968000A0628B3
:101EA0001FD2DFE800F01E0B0F13171BC4F8182118
:101EB000D4F8E40582682046904716E021F07001CE
:101EC00010310EE021F0700120310AE021F07001A4
:101ED000303106E021F07001403102E021F0700164
:101EE00050310548016084F816212046BDE81040B5
:101EF000FFF700BD10BD0000AC0000201CB504467B
:101F00006946FFF729FF9DF8001011F01F000AD065
:101F100001280DD0022810D001F080012046FEF7E4
:101F200005FA00201CBD6946204600F00BF8F8E7D2
:101F30006946204600F0E8F8F3E76946204600F0DD
:101F400079F8EEE72DE9F0414A78002601250A2AC2
:101F500042D2DFE802F03B554152410805412A27B1
:101F6000FFF789FD61E004468888C8B9C888B8B918
:101F7000887800F07F0794F81201032810D084F8C5
:101F8000147139462046FEF7C9F92046FFF7B2FC26
:101F90001FB1022084F8120147E084F8125144E096
:101FA000204619E0FFF732FF3FE0CA88012A13D12B
:101FB00090F81221022A02D0032A0DD102E0012258
:101FC0001B4917E0012200F5887113E090F81221F7
:101FD000022A04D0032A02D0FFF74DFC25E0144961
:101FE0000839CD60D0F818210AB10322CA6010491F
:101FF0000222091DFFF76EFC17E0FFF741FF14E016
:10200000044690F81201022801D00328C8D148885C
:1020100001280AD10020C4F81801D4F8E405826828
:10202000204690472046FFF765FC3046BDE8F0812A
:102030007400002070B50D460446097968780026C2
:1020400058B3012816D0032831D194F81201022880
:102050002FD0032827D1688828B921B1802902D040
:102060002046FEF763F9D4F8E40529468268204645
:1020700090470EE094F8120102281AD0032812D1DA
:102080006888A0B929B1802903D02046FEF7EFF86F
:10209000E9E72046FFF72EFC09E094F81201022838
:1020A00007D003280DD029462046FFF7E4FB304631
:1020B00070BD0029FBD08029F9D02046FEF736F903
:1020C000F5E710480D064FF000034FF0010208D568
:1020D00001F07F0101EB810104EBC10191F81E11B8
:1020E00005E001EB810104EBC10191F8761309B120
:1020F000426000E0436003490222091D2046FFF7C9
:10210000E9FBD4E76C00002070B5054690F8120199
:1021100000260C4603280DD1207901280AD8D5F8CD
:10212000E405826828469047E08830B92846FFF7E2
:10213000E1FB02E02846FFF79EFB304670BD10B57C
:1021400000F589700178417004210170D0F8D6043F
:10215000C0688047002010BD10B50A46024903A0A0
:10216000FFF7F2FC004810BDC00700205643502086
:10217000436F6E666967000003494FF6FF70088081
:1021800002A000F0E7BE00004C0100203E205643B4
:102190005020496E7465726661636520636F6E6678
:1021A0006967757265642E0A0000000003494FF6E6
:1021B000FF70088002A000F0CDBE00004C0100209E
:1021C0003E205553422044657669636520436F6E17
:1021D0006E65637465642E0A00000000122008809A
:1021E000004870475800002003494FF6FF700880F0
:1021F00002A000F0AFBE00004C0100203E2055536D
:10220000422044657669636520446973636F6E6E2E
:1022100065637465642E0A0018B1012803D003A019
:1022200002E00BA000E013A0FEF73ABD2020202022
:102230002055534220446576696365204C6962727B
:102240006172792076312E312E30205B3F3F5D0068
:102250002020202020555342204465766963652064
:102260004C6962726172792076312E312E30205B9A
:1022700048535D002020202020555342204465769D
:10228000696365204C6962726172792076312E3102
:102290002E30205B46535D0003494FF6FF700880E7
:1022A00002A000F057BE00004C0100203E20555314
:1022B000422044657669636520696E2049646C65D7
:1022C000204D6F64652E0A0003494FF6FF700880A9
:1022D00002A000F03FBE00004C0100203E205553FC
:1022E000422044657669636520696E20537573707A
:1022F000656E64204D6F64652E0A000010B50020E5
:10230000FFF712F90120FFF70FF90220FFF70CF990
:102310000320FFF709F9FEF79FFEFEF7B9FC07A0BF
:10232000FEF7F0FC0B494FF6FF7008800AA000F0A2
:1023300011FEBDE8104010A0FEF7B2BC205553427C
:10234000204F544720465320564350204465766919
:10235000636500004C0100203E2055534220646517
:1023600076696365206C6962726172792073746149
:10237000727465642E0A00002020202020555342EC
:1023800020446576696365204C69627261727920C8
:1023900076312E312E30000010B50A46024903A0D6
:1023A000FFF7D2FB004810BDC00700205643502065
:1023B000496E7465726661636500000004200880E0
:1023C000004870475400002010B50A46024903A097
:1023D000FFF7BAFB004810BDC007002053544D69F9
:1023E00063726F656C656374726F6E69637300000E
:1023F0000A4610B5044928B104A000BFFFF7A4FBAA
:10240000014810BD0AA0F9E7C007002053544D331E
:1024100032205669727475616C20436F6D506F7213
:102420007420696E204653204D6F646500000000E3
:1024300053544D3332205669727475616C20436F6A
:102440006D506F727420696E204853206D6F646503
:10245000000000000A4610B5044928B104A000BFDE
:10246000FFF772FB014810BD05A0F9E7C007002087
:102470003030303030303030303530430000000004
:1024800030303030303030303035304200000000F5
:102490004320088000487047D800002008B54FF45A
:1024A000C060FEF729FD43208DF8000001208DF863
:1024B000010003218DF802108DF803006846FEF735
:1024C000E9FC08BD2DE9FC4101210846FEF73EFD6F
:1024D0004FF4C850032500908DF8055002208DF868
:1024E00004000024204F8DF806408DF8074069460F
:1024F0003846FEF7C1F90A2208213846FEF70DFAE0
:102500000A220B213846FEF708FA0A220C21384627
:10251000FEF703FA8DF8055078158DF80440012672
:1025200000908DF806608DF8074069463846FEF742
:10253000A3F9B0028DF8066000908DF807608DF861
:10254000055069463846FEF797F90A221146384683
:10255000FEF7E3F901218803FEF728FD0121802021
:10256000FEF700FDBDE8FC81000002404FF47A71E7
:102570004843AFF30080C0EB00100021C0000722E9
:10258000B0FBF2F0491C8142FCD9704770B504469B
:10259000017A0025C068012915D0C16841F04001C9
:1025A000C160204600F0CAF8617A4FF4502009B1AA
:1025B0004FF4E810E16888631420FFF7D7FFE07854
:1025C000012819D020E0816B627A21F480310AB1B0
:1025D00041F480118163E068C16821F0401121F469
:1025E0002021C160204600F0A9F8E07801280BD135
:1025F000E1682A208860E2E7E068816821F01E0136
:102600000A3141F020018160284670BD2DE9F0417A
:1026100004460027D0F80C013E4635460760206985
:10262000016821F4C0510160E07A012829D1032119
:10263000204600F0C8FAE068802242622021284645
:10264000E36861F31F4062F30F00986200EB1040F3
:1026500060F30F05E06862F31F45C0F8045105EB15
:10266000154060F30F05E06861F31F45C0F808519D
:1026700005EB154060F30F05E06866F31F45C0F8F1
:102680000C511021204600F06BFA204600F04CFA65
:10269000206906612069466121694FF0FF30886139
:1026A0002069C66100214FF09040FF2312E000BF77
:1026B00004EB8105D5F818C0DCF80020002A01DA07
:1026C000024600E03246CCF80020AA691661AA69E9
:1026D0009360491C62788A42EAD8002212E000BF67
:1026E00004EB8205D5F854C0DCF80010002901DAAB
:1026F000014600E03146CCF80010696D0E61696D4D
:102700008B60521C61789142EAD82069016941F4DA
:1027100080710161E078012809D10320402161F333
:102720008A0040F4803061F35940216908632046F3
:1027300000F0CAF93846BDE8F0810000F8B500277E
:1027400004463E460097124D0320FFF714FFE06851
:1027500000690090761CAE4201D90020F8BD0098B7
:102760000028F1DA0099002041F001010091009960
:10277000E2681161E1680A690092401CA84202D82F
:10278000009AD207F7D10320FFF7F5FE3846F8BDCF
:10279000400D0300C0680021826822F001028260BF
:1027A0000846704710B5016900238C68826911687A
:1027B000C4F341042CB1012C03D0022C04D0032C0F
:1027C00005D16FF30A0102E06FF30A01C91C116021
:1027D0000069416841F480714160184610BD0000F5
:1027E000F0B54A7800254C69012A15D00A7800EB2B
:1027F00082035A6D16681269DCB38C68C1F8144004
:1028000064F306025B6D22F4C01202F500221A6125
:10281000C278012A30D035E083691F681A6934B163
:102820008E68B44206D966F306024E6104E022F0D7
:102830007F0201E064F3060222F4C01202F50022D6
:102840001A61C278012A05D10C780A6900EB840468
:10285000A469626147F004421A60C278CAB94A6941
:10286000BAB10A78006901219140426B0A43426380
:102870000FE0FFE70C7AC3E70B780A6900EB8303EC
:102880005B6D5A61097846F0044200EB8100406DAF
:1028900002602846F0BD0000426D07491161C17811
:1028A000012908D1426D00F2CC515161406D01689F
:1028B0004FF0802101607047180008C0F0B50E7815
:1028C00000254F780122B2402B4600EB8604012FF1
:1028D00019D0646D62F31F43226816040DD40E896B
:1028E00066F30A02CE78897966F3934261F39952CE
:1028F00042F0805141F4004121600069C1691943EF
:10290000C1612846F0BDA46962F30F03E4E710B586
:1029100002464C780B78002002EB8302012C09D090
:10292000526D1368C97823F40013032904D00229D7
:1029300002D003E09269F4E743F08053136010BDC6
:1029400030B50C7803464D7801220020A24003EBFD
:102950008401012D09D04C6D014662F31F412060B6
:102960001A69D3698B43D36130BD8C69014662F328
:102970000F01F4E702464B780978002002EB810151
:10298000012B05D0496D0A6842F400120A607047B5
:102990008A691168002901DA41F0804141F400118F
:1029A00011607047F0B54B780A78002401264F6912
:1029B00000EB8202012B15D0556D2B682A69002F80
:1029C00062D08E6837447F1EB7FBF6F767F3DC42B0
:1029D000C2F3C947774367F312022A61C278012A1A
:1029E00058D05DE095692B682A696FB1D1F808C0AD
:1029F00067F3120267447F1EB7FBFCF767F3DC4204
:102A0000CF78012F05D008E06FF3120266F3DC42A5
:102A100003E022F0C04202F100522A61C278012A8A
:102A20000ED0CA78012A12D04A69C2B10A789640FB
:102A30000269556B35435563CA78012A07D00EE009
:102A40000D780A6900EB8505AD696A61F4E70269F2
:102A50009268C2F30D22D2070CD043F0805343F0AA
:102A600004420B7800EB83039B691A60CA78012A41
:102A700003D026E043F00053F1E78A8A93B20A7844
:102A8000C96800F05DF91CE08F6867F3120266F315
:102A9000DC42A2E70D780A6900EB85056D6D6A617D
:102AA000CA78012A06D14A7912B143F0005301E0F5
:102AB00043F08053097843F0044200EB8100406DFD
:102AC00002602046F0BD000030B5C3680022114608
:102AD0009A61C4686FF080436361C568541E6C607E
:102AE000C4686361C4680B4BA361C37803B9102148
:102AF00041F48721C06841F0081141F4401141F0D0
:102B00008041836941F004018B430B43836110468C
:102B100030BD000000080080C0680021826842F0DB
:102B2000010282600846704738B5002421460094AF
:102B3000009A42F010020092009AC3681A61074A94
:102B4000C06803690093491C914202D8009BDB06D0
:102B5000F7D40320FFF70FFD204638BD400D0300DA
:102B600038B5002422460094009B43F020030093D4
:102B7000009B61F38A1300930099C36819610749A8
:102B8000C06803690093521C8A4202D8009B9B06CE
:102B9000F7D40320FFF7EFFC204638BD400D0300BB
:102BA0000146002009698968C1F3410139B1012951
:102BB00003D0022905D0032900D102207047032049
:102BC0007047012070470269106861F301001060CE
:102BD0007047C068406910F0010F01D000207047B5
:102BE00001207047C06841698069084070470069EA
:102BF0008169C069084080B2704700698169C06915
:102C00000840000C704700EB8101496D896800693C
:102C1000406908407047034610B50020D21C920856
:102C2000D3F8D03003E01C6841F8044B401C9042BC
:102C3000F9D3084610BD000070B500220125C2700E
:102C400040268570144613468680012901D061B163
:102C500014E0C5720821017004214FF0A0424170B8
:102C60009115C1800221017208E0C3720C2101702C
:102C7000062141701F4A4FF4A061C18002F5006136
:102C8000C0E9032100210AE002EB411303F51066BD
:102C900000EB810503F53063AE61491C6B65437839
:102CA0008B42F1D802F5806141614031C0F8CC100F
:102CB000002108E002EB411300EB810503F5A0635E
:102CC000491CC5F8903003788B42F3D8002108E006
:102CD00002EB013300EB810503F58053491CC5F875
:102CE000D03003788B42F3D802F56062C0F80C2133
:102CF000204670BD0000044010B5C0680024C268C2
:102D0000012922F0C04201D019B104E042F0005282
:102D100001E042F08042C2603220FFF727FC2046EB
:102D200010BD817A00290AD001698968C90706D0D7
:102D3000D0F80C11D0F80C0121F0030101607047AC
:102D400030B5C47800256CB900EB82000024DB1C90
:102D50009B08D0F8D00003E051F8042B0260641CFB
:102D60009C42F9D3284630BDFEE7000070B50C2325
:102D700027494FF4C064002238B126480579BDB117
:102D8000012D17D0022D2CD117E04FF4E13008604F
:102D90008A80CA800C818A814B811D490020FEF700
:102DA00063FB012240F225511B48FEF7CFFC2CE0CB
:102DB000CA8005E04FF4405501E04FF40055CD8046
:102DC000457925B1012D04D0022D0AD103E00A81F5
:102DD00002E04FF480640C818479072C0CD0082C1D
:102DE00004D00020FFF7C2FF022070BD0C891CB187
:102DF0004FF480548C8000E08A80006808608A81EB
:102E00004B8103490020FEF72FFB002070BD00001E
:102E1000B00700201C0000200048004010B5042826
:102E200025DD144A202802D0212820D10EE0CB78BD
:102E3000086863F31F601060087910714879507159
:102E4000887990710120FFF791FF10E010780870E9
:102E50001088000A48701068000C88701068000E16
:102E6000C870107908715079487190798871002084
:102E700010BD00001C0000202DE9F0410E46074661
:102E80000024094D0AE0395D2846FEF7D7FC802171
:102E90002846FEF735FC0028F9D0641CB442F2D372
:102EA0000020BDE8F08100000048004070B50E48E9
:102EB0000F4D104C81790D48072902D0082905D003
:102EC00008E0FEF7B7FC00F07F0001E0FEF7B2FC7F
:102ED000216868542068401C2060B0F5006F01D163
:102EE00000202060002070BD1C0000200048004031
:102EF000FF080020B80000200020704738B51348B4
:102F00004FF4E131002401608480C4804FF4C0613B
:102F1000018184810C21418101462046FEF7A4FAFB
:102F2000012240F225510A48FEF710FC27208DF8B7
:102F300000008DF801408DF8024001208DF803005B
:102F40006846FDF7A7FF002038BD0000B00700204D
:102F500000480040014A024900F013B8C12F0008A0
:102F6000B801002002E008C8121F08C1002AFAD1E7
:102F700070477047002001E001C1121F002AFBD1F9
:102F800070472DE9F04116460F460446002503E040
:102F90003946B0476D1C641C20780028F8D12846BB
:102FA000BDE8F08101B581B0044901984843009023
:102FB000002801D0401EFAE70CBD0000A0860100E9
:102FC0002DE9F05F0646FDF749FE3A4C0246A0782F
:102FD00000286CD160780025012806D1E089608145
:102FE000A08920816570E570258291884FF4A07AD0
:102FF000BAFBF1F1E088304BF7B2814209D90A2ED1
:1030000007D0618901EB810202EBC10103EB810171
:103010004AE0B4F808C061898C4505D394F8008073
:10302000B8F1000F0AD0257001EB810C0CEBC10C3C
:103030004FF0200B994603EB8C0C10E00CF1010CC7
:103040001FFA8CFCA4F808C0BCF1090FECD1258153
:10305000EAE7E3880CF803B05B1CE380401CB2F89D
:103060000480BAFBF8F38342F3D801EB810000EB54
:10307000C10109EB8100A2884286E580FDF78AFE46
:103080006089401C80B26081092803D165810120DC
:10309000208120700A2E0AD0608900EB800101EBAC
:1030A000C001E08809EB81010F54401CE0803046EC
:1030B000BDE8F09F48010020001100201CB500244D
:1030C0000E48CDE900040E4B0E4A01210E48FEF7D2
:1030D0005EFD4FF480150198411C0191A842FAD180
:1030E0000020FEF745FA0120FEF742FA0220FEF723
:1030F0003FFA0320FEF73CFA0194ECE700000020C1
:103100001C01002038000020BC01002070B50F49D0
:103110000A78012A18D10A69002652B10B46402AC2
:10312000DD68ACB207D940234035403AC1E90352CB
:1031300005E00E7008E093B22A44C1E90326044971
:103140000A198121FDF70EF9002070BDB0000020A2
:10315000FF08002010B5044601EB810004EBC0001D
:10316000B0F88C0381B206480269064890474023B4
:10317000044A01212046FDF7B4F8002010BD0000EC
:1031800024000020BF08002010B504468121FDF76F
:1031900058F801212046FDF754F882212046FDF71A
:1031A00050F8024840688047002010BD24000020ED
:1031B00010B5074C6069FF2807D00649A2698B68E3
:1031C00004F120019847FF206061002010BD00003D
:1031D000B00000202400002010B504460223402245
:1031E0008121FDF760F80223402201212046FDF7EE
:1031F0005AF80323082282212046FDF754F8084993
:103200000220087100204871064801688847402361
:10321000054A01212046FDF764F8002010BD00009A
:103220005800002024000020BF080020064910B5E7
:10323000CA69521CCA61062A03D10022CA61FDF77D
:103240007DFB002010BD0000B000002070B50C46D2
:103250000546294920783A2210F06006A1F1310391
:1032600022D0202E05D021462846FEF704FB02205E
:1032700070BD2249E2888E688AB10006607806D562
:103280001D491139B0471C49E28811391FE0C3E9D3
:103290000502194928461139FEF7FBFA27E00022FA
:1032A00060781146B04722E06078062804D00A28EA
:1032B00011D00B281BD112E060882123B3EB102F13
:1032C00005D10D49E28809313A2A00D93A22284627
:1032D000FEF700FB0BE0084901222D39F7E7608873
:1032E00010F0FF0F05D021462846FEF7C4FA002053
:1032F00070BDC0B25860FAE7E10000202400002051
:1033000000000000000000000000000000000000BD
:1033100000000000000000000000000000000000AD
:10332000000000000000000000000000000000009D
:103330000000800180018001800180018001800106
:103340008001800180018001800180010000000077
:10335000800180010000000000000000000000006B
:1033600000000000CC00CC00CC00CC00CC00CC0095
:10337000000000000000000000000000000000004D
:10338000000000000000000000000000000000003D
:10339000000000000000000000000000600C600C55
:1033A000600C30063006FE1FFE1F3006380718037B
:1033B000FE1FFE1F180318038C018C018C010000F6
:1033C00000008000E003F80F9C0E8C1C8C188C0011
:1033D0009800F801E007800E801C8C188C189C184F
:1033E000B80CF00FE0038000800000000000000037
:1033F0000000000000000E181B0C110C1106110635
:10340000110311039B018E01C038C06C60446044FD
:10341000304430441844186C0C38000000000000A0
:103420000000E001F0033807180618063003F00129
:10343000F000F8009C310E33061E061C061C063FE9
:10344000FC73F021000000000000000000000000FC
:10345000000000000C000C000C000C000C000C0024
:10346000000000000000000000000000000000005C
:10347000000000000000000000000000000000004C
:103480000000000200038001C000C0006000600076
:1034900030003000300030003000300030003000AC
:1034A00060006000C000C000800100030002000056
:1034B000000020006000C0008001800100030003C4
:1034C00000060006000600060006000600060006CC
:1034D0000003000380018001C000600020000000A4
:1034E000000000000000000000000000C000C0005C
:1034F000D806F807E001300338070000000000009C
:1035000000000000000000000000000000000000BB
:1035100000000000000000000000000080018001A9
:10352000800180018001FC3FFC3F8001800180011F
:103530008001800100000000000000000000000089
:10354000000000000000000000000000000000007B
:10355000000000000000000000000000000000006B
:1035600000008001800100010001800000000000D7
:10357000000000000000000000000000000000004B
:103580000000000000000000E007E007000000006D
:10359000000000000000000000000000000000002B
:1035A000000000000000000000000000000000001B
:1035B000000000000000000000000000000000000B
:1035C0000000C000C000000000000000000000007B
:1035D0000000000C000C00060006000600030003BB
:1035E00000038003800180018001C000C000C00092
:1035F000600060000000000000000000000000000B
:103600000000E003F007380E180C0C180C180C180A
:103610000C180C180C180C180C180C18180C380E68
:10362000F007E003000000000000000000000000C0
:10363000000000018001C001F001980188018001B3
:103640008001800180018001800180018001800172
:103650008001800100000000000000000000000068
:103660000000E003F80F180C0C180C1800180018D4
:10367000000C000600038001C0006000300018004C
:10368000FC1FFC1F00000000000000000000000004
:103690000000E001F807180E0C0C0C0C000C0006E2
:1036A000C003C007000C001800180C180C18180CE8
:1036B000F807E00300000000000000000000000028
:1036C0000000000C000E000F000F800DC00C600CFD
:1036D000600C300C180C0C0CFC3FFC3F000C000C78
:1036E000000C000C000000000000000000000000C2
:1036F0000000F80FF80F180018000C00EC03FC078E
:103700001C0E001C0018001800180C181C0C180EB9
:10371000F807E003000000000000000000000000C7
:103720000000C007F00F381C181818000C00CC035C
:10373000EC0F3C0E1C1C0C180C180C18181C380E26
:10374000F007E0030000000000000000000000009F
:103750000000FC1FFC1F000C000600060003800395
:103760008001C001C000E000600060007000300017
:1037700030003000000000000000000000000000E9
:103780000000E003F007380E180C180C180C38066F
:10379000F007F007180C0C180C180C180C18380C43
:1037A000F80FE0030000000000000000000000002F
:1037B0000000E003F007380E1C0C0C180C180C1855
:1037C0001C1C381EF81BE0190018000C000C1C0E05
:1037D000F807F001000000000000000000000000F9
:1037E00000000000000000000000000080018001D7
:1037F00000000000000000000000000000000000C9
:1038000080018001000000000000000000000000B6
:1038100000000000000000000000000080018001A6
:103820000000000000000000000000000000000098
:103830008001800100010001800000000000000004
:103840000000000000000000000000000000000078
:103850000010001C800FE003F8001800F800E003DF
:10386000800F001C0010000000000000000000009D
:103870000000000000000000000000000000000048
:10388000F81F000000000000F81F0000000000000A
:103890000000000000000000000000000000000028
:1038A0000000000000000000000000000000000018
:1038B00008003800F001C007001F0018001FC007F3
:1038C000F0013800080000000000000000000000C7
:1038D0000000E003F80F180C0C180C180018000C6E
:1038E000000600038001C000C000C000000000000E
:1038F000C000C00000000000000000000000000048
:1039000000000000E00718180420C229224A1144D0
:1039100009440944094409221113E20C024004201D
:103920001818E00700000000000000000000000080
:10393000000080038003C006C006C006600C600C57
:10394000301830183018F83FF83F1C700C600C60CD
:1039500006C006C0000000000000000000000000DB
:103960000000FC03FC0F0C0C0C180C180C180C0CB1
:10397000FC07FC0F0C180C300C300C300C300C1801
:10398000FC1FFC0700000000000000000000000019
:103990000000C007F01F38381C300C7006600600AD
:1039A0000600060006000600060006600C701C30CB
:1039B000F01FE00700000000000000000000000011
:1039C0000000FE03FE0F060E06180618063006302D
:1039D0000630063006300630063006180618060E89
:1039E000FE0FFE03000000000000000000000000C9
:1039F0000000FC3FFC3F0C000C000C000C000C0015
:103A0000FC1FFC1F0C000C000C000C000C000C0038
:103A1000FC3FFC3F00000000000000000000000030
:103A20000000F83FF83F18001800180018001800B0
:103A3000F81FF81F180018001800180018001800C8
:103A40001800180000000000000000000000000046
:103A50000000E00FF83F3C780E6006E007C003006E
:103A6000030003FE03FE03C007C006C00EC03CF007
:103A7000F83FE00F00000000000000000000000020
:103A800000000C300C300C300C300C300C300C3092
:103A9000FC3FFC3F0C300C300C300C300C300C3048
:103AA0000C300C300000000000000000000000009E
:103AB000000080018001800180018001800180017F
:103AC00080018001800180018001800180018001EE
:103AD00080018001000000000000000000000000E4
:103AE00000000006000600060006000600060006AC
:103AF000000600060006000600061806180638072D
:103B0000F003E001000000000000000000000000E1
:103B1000000006300618060C060606038601C600DD
:103B200066007600DE008E0106030606060C061807
:103B300006300660000000000000000000000000E9
:103B400000001800180018001800180018001800CD
:103B500018001800180018001800180018001800A5
:103B6000F81FF81F00000000000000000000000027
:103B700000000EE01EF01EF01EF036D836D836D803
:103B800036D866CC66CC66CCC6C6C6C6C6C6C6C661
:103B900086C386C300000000000000000000000093
:103BA00000000C301C303C303C306C306C30CC3081
:103BB000CC308C310C330C330C360C360C3C0C3CBA
:103BC0000C380C3000000000000000000000000075
:103BD0000000E007F81F1C380E70066003C003C029
:103BE00003C003C003C003C003C006600E701C38CE
:103BF000F81FE007000000000000000000000000C7
:103C00000000FC0FFC1F0C380C300C300C300C305A
:103C10000C18FC1FFC070C000C000C000C000C0026
:103C20000C000C000000000000000000000000007C
:103C30000000E007F81F1C380E70066003E003C0A8
:103C400003C003C003C003C007E006630E3F1C3C73
:103C5000F83FE0F700C00000000000000000000096
:103C60000000FE0FFE1F063806300630063006380C
:103C7000FE1FFE0706030606060C06180618063089
:103C80000630066000000000000000000000000098
:103C90000000E003F80F1C0C0C180C180C001C00A2
:103CA000F803E00F001E0038063006300E301C1CF2
:103CB000F80FE00700000000000000000000000016
:103CC0000000FE7FFE7F8001800180018001800175
:103CD00080018001800180018001800180018001DC
:103CE00080018001000000000000000000000000D2
:103CF00000000C300C300C300C300C300C300C3020
:103D00000C300C300C300C300C300C300C301818DF
:103D1000F81FE007000000000000000000000000A5
:103D2000000003600630063006300C180C180C1822
:103D3000180C180C380E300630067007600360034C
:103D4000C001C001000000000000000000000000F1
:103D500000000360C361C361C361663366336633C9
:103D60006633663366336C1B6C1B6C1B2C1A3C1E53
:103D7000380E380E000000000000000000000000B7
:103D800000000FE00C7018303018700C600EC00787
:103D900080038003C003E006700C301C18180C3040
:103DA0000E6007E0000000000000000000000000BE
:103DB000000003C006600C301C383818300C600658
:103DC000E007C00380018001800180018001800143
:103DD00080018001000000000000000000000000E1
:103DE0000000FC7FFC7F006000300018000C000623
:103DF00000038001C0006000300018000C000600C5
:103E0000FE7FFE7F000000000000000000000000B8
:103E10000000E003E00360006000600060006000FC
:103E20006000600060006000600060006000600092
:103E300060006000600060006000E003E0030000DC
:103E4000000030003000600060006000C000C00072
:103E5000C000C00180018001800100030003000355
:103E60000006000600000000000000000000000046
:103E70000000E003E003000300030003000300036D
:103E8000000300030003000300030003000300031A
:103E900000030003000300030003E003E00300004D
:103EA00000000000C001C001600360036003300631
:103EB0003006180C180C0000000000000000000084
:103EC00000000000000000000000000000000000F2
:103ED00000000000000000000000000000000000E2
:103EE00000000000000000000000000000000000D2
:103EF0000000FFFFFFFF00000000000000000000C6
:103F000000000C000C000C000C000C000C00000069
:103F100000000000000000000000000000000000A1
:103F20000000000000000000000000000000000091
:103F3000000000000000000000000000F003F8078F
:103F40001C0C0C0C000FF00FF80C0C0C0C0C1C0FC4
:103F5000F80FF01800000000000000000000000052
:103F6000000018001800180018001800D803F80FF7
:103F7000380C181818181818181818181818380C99
:103F8000F80FD8030000000000000000000000004F
:103F9000000000000000000000000000C003F00767
:103FA000300E180C1800180018001800180C300EED
:103FB000F007C00300000000000000000000000047
:103FC000000000180018001800180018C01BF01F8F
:103FD000301C181818181818181818181818301C29
:103FE000F01FC01B000000000000000000000000E7
:103FF000000000000000000000000000C003F00FFF
:10400000300C1818F81FF81F180018003818301C4A
:10401000F00FC007000000000000000000000000DA
:104020000000800FC00FC000C000C000F007F00704
:10403000C000C000C000C000C000C000C000C00080
:10404000C000C000000000000000000000000000F0
:10405000000000000000000000000000E00DF80F6C
:10406000180E0C0C0C0C0C0C0C0C0C0C0C0C180E74
:10407000F80FE00D000C0C0C1C06F807F001000016
:10408000000018001800180018001800D807F80FD2
:10409000381C18181818181818181818181818187C
:1040A00018181818000000000000000000000000B0
:1040B0000000C000C000000000000000C000C00000
:1040C000C000C000C000C000C000C000C000C000F0
:1040D000C000C00000000000000000000000000060
:1040E0000000C000C000000000000000C000C000D0
:1040F000C000C000C000C000C000C000C000C000C0
:10410000C000C000C000C000C000F800780000007F
:1041100000000C000C000C000C000C000C0C0C0639
:104120000C038C01CC006C00FC009C018C030C0384
:104130000C060C0C00000000000000000000000055
:104140000000C000C000C000C000C000C000C0002F
:10415000C000C000C000C000C000C000C000C0005F
:10416000C000C000000000000000000000000000CF
:104170000000000000000000000000007C3CFF7E0A
:10418000C7E383C183C183C183C183C183C183C1A9
:1041900083C183C100000000000000000000000097
:1041A0000000000000000000000000009807F80F69
:1041B000381C18181818181818181818181818185B
:1041C000181818180000000000000000000000008F
:1041D000000000000000000000000000C003F00F1D
:1041E000300C181818181818181818181818300C37
:1041F000F00FC003000000000000000000000000FD
:10420000000000000000000000000000D803F80FCC
:10421000380C181818181818181818181818380CF6
:10422000F80FD80318001800180018001800000034
:10423000000000000000000000000000C01BF01F94
:10424000301C181818181818181818181818301CB6
:10425000F01FC01B001800180018001800180000FC
:10426000000000000000000000000000B007F003A4
:10427000700030003000300030003000300030007E
:1042800030003000000000000000000000000000CE
:10429000000000000000000000000000E003F00348
:1042A000380E180C3800F003C007000C180C380E3C
:1042B000F007E00300000000000000000000000024
:1042C000000000008000C000C000C000F007F00740
:1042D000C000C000C000C000C000C000C000C000DE
:1042E000C007800700000000000000000000000080
:1042F000000000000000000000000000181818185E
:104300001818181818181818181818181818381C09
:10431000F01FE01900000000000000000000000095
:104320000000000000000000000000000C18180C45
:10433000180C180C3006300630066003600360036A
:10434000C001C001000000000000000000000000EB
:10435000000000000000000000000000C141C14159
:10436000C3616363636363633636363636361C1C5B
:104370001C1C1C1C000000000000000000000000CD
:104380000000000000000000000000001C38381C85
:10439000300C600660036003600360036006300C4D
:1043A000381C1C3800000000000000000000000065
:1043B000000000000000000000000000183030186D
:1043C00030187018600C600CE00CC006C00680034A
:1043D0008003800380018001C001F00070000000B4
:1043E000000000000000000000000000FC1FFC1F97
:1043F000000C000600038001C000600030001800BF
:10440000FC1FFC1F00000000000000000000000076
:10441000000000038001C000C000C000C000C00058
:10442000C00060006000300060004000C000C000BC
:10443000C000C000C000C0008001000300000000F8
:1044400000008001800180018001800180018001E5
:104450008001800180018001800180018001800154
:1044600080018001800180018001800180010000C5
:1044700000006000C000C001800180018001800157
:104480008001000300030006000300018001800199
:104490008001800180018001C000600000000000F8
:1044A000000000000000000000000000000000000C
:1044B000F010F81F080F00000000000000000000CE
:1044C00000000000000000000000000000000000EC
:1044D00000000000000000000000000000000000DC
:1044E000000000000000000000000020002000206C
:1044F000002000200020002000000020000000001C
:1045000000000050005000500000000000000000BB
:104510000000000000000000000000090009001277
:10452000007F0012007F0012002400240000000021
:10453000001000380054005000500038001400549F
:10454000005400380010000000008030004900498D
:10455000004AC032200520092009C01000000000D8
:104560000000000C001200120014001800250023A7
:104570000023801D000000000000004000400040BB
:10458000000000000000000000000000000000002B
:104590000000000800100010002000200020002073
:1045A000002000200010001000000040002000202B
:1045B000001000100010001000100010002000205B
:1045C00000000020007000200050000000000000EB
:1045D00000000000000000000000000000000008D3
:1045E0000008007F00080008000000000000000034
:1045F00000000000000000000000000000000000BB
:10460000000000200020004000000000000000002A
:10461000000000000070000000000000000000002A
:10462000000000000000000000000000000000008A
:10463000000000200000000000000010001000102A
:10464000002000200020002000400040000000006A
:1046500000000010002800440044004400440044CE
:104660000028001000000000000000100030005082
:1046700000100010001000100010001000000000DA
:104680000000003000480044000400080010002032
:104690000040007C000000000000003000480004E2
:1046A000000800100008004400480030000000002E
:1046B0000000000800180018002800280048007CAE
:1046C00000080008000000000000003C002000403E
:1046D0000070004800040044004800300000000062
:1046E000000000180024004000500068004400440E
:1046F00000280010000000000000007C00040008FA
:104700000010001000100020002000200000000019
:104710000000001000280044002800100028004479
:1047200000280010000000000000001000280044D5
:104730000044002C00140004004800300000000079
:104740000000000000000020000000000000000049
:104750000000002000000000000000000000002019
:1047600000000000000000000000002000200040C9
:104770000000000000040008003000400030000885
:104780000004000000000000000000000000007CA9
:1047900000000000007C000000000000000000009D
:1047A0000000000000400020001800040018002055
:1047B00000400000000000000000003800640044D9
:1047C00000040008001000100000001000000000AD
:1047D0000000800F4010A02EA051205120512051E8
:1047E0002053C04D20204010000000080014001489
:1047F00000140022003E00220041004100000000A1
:104800000000003C002200220022003C0022002286
:104810000022003C000000000000000E00110021FA
:1048200000200020002000210011000E00000000E8
:104830000000003C00220021002100210021002175
:104840000022003C000000000000003E002000208C
:104850000020003E002000200020003E000000005C
:104860000000003E002000200020003C002000202E
:1048700000200020000000000000000E00110021B8
:1048800000200027002100210011000E0000000080
:1048900000000021002100210021003F0021002113
:1048A0000021002100000000000000200020002066
:1048B0000020002000200020002000200000000038
:1048C0000000000800080008000800080008004870
:1048D00000480030000000000000002200240028F2
:1048E00000280038002800240024002200000000D6
:1048F00000000020002000200020002000200020D8
:104900000020003E00000000000080208031803147
:104910008031802A802A802A802A8024000000009A
:10492000000000210031003100290029002500236A
:1049300000230021000000000000000C00120021F4
:1049400000210021002100210012000C00000000C5
:104950000000003C002200220022003C0020002039
:1049600000200020000000000000000C00120021C8
:1049700000210021002100210016000D000100008F
:104980000000003E002100210021003E0024002202
:1049900000218020000000000000001C00220022F6
:1049A0000020001C000200220022001C0000000069
:1049B0000000003E00080008000800080008000889
:1049C0000008000800000000000000210021002174
:1049D00000210021002100210012000C0000000035
:1049E00000000041004100220022002200140014B7
:1049F000001400080000000000004044404A402A23
:104A0000802A802A802A802A802A00110000000043
:104A100000000041002200140014000800140014DB
:104A2000002200410000000000000041002200229E
:104A3000001400080008000800080008000000003A
:104A40000000007E0002000400080010001000209A
:104A50000040007E00000000000000300020002028
:104A60000020002000200020002000200020002046
:104A70000000004000400020002000200020002016
:104A80000010001000000000000000600020002066
:104A90000020002000200020002000200020002016
:104AA000000000100028002800280044000000003A
:104AB00000000000000000000000000000000000F6
:104AC0000000000000000000000000000000007E68
:104AD0000040002000000000000000000000000076
:104AE000000000000000000000000000000000388E
:104AF00000440004003C00440044003C000000006E
:104B0000000000400040005800640044004400449D
:104B100000640058000000000000000000000030A9
:104B20000048004000400040004800300000000005
:104B30000000000400040034004C00440044004421
:104B4000004C0034000000000000000000000038AD
:104B500000440044007C0040004400380000000095
:104B600000000060004000E00040004000400040C5
:104B70000040004000000000000000000000003481
:104B8000004C004400440044004C00340004004445
:104B9000000000400040005800640044004400440D
:104BA00000440044000000000000004000000040FD
:104BB0000040004000400040004000400000000075
:104BC0000000004000000040004000400040004065
:104BD000004000400040004000000040004000480D
:104BE00000500060005000500048004800000000E5
:104BF00000000040004000400040004000400040F5
:104C000000400040000000000000000000000052D2
:104C1000006D0049004900490049004900000000BA
:104C200000000000000000580064004400440044FC
:104C300000440044000000000000000000000038B4
:104C400000440044004400440044003800000000D8
:104C500000000000000000580064004400440044CC
:104C600000640058004000400000000000000034D4
:104C7000004C004400440044004C00340004000494
:104C800000000000000000500060004000400040B4
:104C90000040004000000000000000000000003064
:104CA00000480040003000080048003000000000CC
:104CB00000000040004000E0004000400040004094
:104CC0000040006000000000000000000000004400
:104CD0000044004400440044004C00340000000044
:104CE00000000000000000440044002800280028C4
:104CF0000028001000000000000000000000004933
:104D000000490055005500550055002200000000E4
:104D100000000000000000440028002800100028C7
:104D200000280044000000000000000000000044D3
:104D30000044002800280028001000100010001077
:104D40000000000000000078000800100020002093
:104D5000004000780000000000000010002000204B
:104D60000020002000400020002000200020002023
:104D70000000002000200020002000200020002053
:104D80000020002000200020000000400020002023
:104D90000020002000100020002000200020002023
:104DA0000000000000000000007400580000000037
:104DB0000000000000000000000000000070005033
:104DC00000500050005000500050007000000000E3
:104DD00000000000000000000000000000000000D3
:104DE00000000000000000000000000000001000B3
:104DF0001000100010001000100000001000000053
:104E0000000000000000280028002800000000002A
:104E1000000000000000000000000000000014007E
:104E200014003E00140028007C0028002800000028
:104E3000000000001000380054005000380014003A
:104E4000140054003800100000000000000044006E
:104E5000A800A800500014001A002A002400000036
:104E60000000000000002000500050002000E8007A
:104E70009800980060000000000000000000800022
:104E80008000800000000000000000000000000022
:104E900000000000000040008000800080008000D2
:104EA0008000800080008000000000000000800082
:104EB00040004000400040004000400040004000F2
:104EC0000000000000004000E0004000A0000000E2
:104ED00000000000000000000000000000000000D2
:104EE000000020002000F80020002000000000004A
:104EF00000000000000000000000000000000000B2
:104F00000000000040004000000000000000000021
:104F10000000000000000000C000000000000000D1
:104F20000000000000000000000000000000000081
:104F30000000000040000000000000000000200011
:104F40002000200040004000800080008000000021
:104F500000000000000060009000900090009000B1
:104F600090009000600000000000000000002000A1
:104F70006000A00020002000200020002000000091
:104F800000000000000060009000100010002000F1
:104F900040008000F0000000000000000000600001
:104FA00090001000600010001000900060000000F1
:104FB0000000000000001000300050005000900081
:104FC000F800100010000000000000000000700059
:104FD00040008000E0001000100090006000000021
:104FE000000000000000600090008000A000D000E1
:104FF0009000900060000000000000000000F00041
:105000001000200020002000400040004000000070
:105010000000000000006000900090006000900020
:1050200090009000600000000000000000006000A0
:1050300090009000B0005000100090006000000050
:105040000000000000000000000040000000000020
:105050000000000040000000000000000000000010
:105060000000400000000000000000004000400080
:105070000000000000000000000010006000800040
:1050800060001000000000000000000000000000B0
:1050900000000000F0000000F00000000000000030
:1050A0000000000000000000000080006000100010
:1050B00060008000000000000000000000006000B0
:1050C0009000100020004000400000004000000060
:1050D0000000000000001C0022005B00A500A500ED
:1050E000A500A5009E004100000000000000200077
:1050F00050005000500050007000880088000000F0
:10510000000000000000F00088008800F000880027
:1051100088008800F0000000000000000000380057
:1051200044008400800080008400440038000000B7
:10513000000000000000E000900088008800880067
:1051400088009000E0000000000000000000F8006F
:1051500080008000F800800080008000F8000000DF
:105160000000000000007800400040007000400097
:105170004000400040000000000000000000380037
:105180004400840080009C0084004400380000003B
:10519000000000000000880088008800F8008800F7
:1051A00088008800880000000000000000008000E7
:1051B000800080008000800080008000800000006F
:1051C000000000000000100010001000100010008F
:1051D00090009000600000000000000000008800C7
:1051E0009000A000E000A000900090008800000067
:1051F000000000000000800080008000800080002F
:1052000080008000F000000000000000000082002C
:10521000C600C600AA00AA00AA00AA0092000000C8
:105220000000000000008400C400A400A40094005A
:1052300094008C008400000000000000000030009A
:10524000480084008400840084004800300000008E
:10525000000000000000F000880088008800F000D6
:10526000800080008000000000000000000030008E
:105270004800840084008400840058003400040046
:105280000000000000007800440044007800500056
:1052900048004400420000000000000000007000D0
:1052A00088008000700008008800880070000000FE
:1052B000000000000000F800200020002000200076
:1052C00020002000200000000000000000008400FA
:1052D00084008400840084008400480030000000C2
:1052E00000000000000088008800500050005000BE
:1052F000500050002000000000000000000092005C
:10530000AA00AA00AA00AA00AA00AA00440000005D
:105310000000000000008400480048003000300019
:1053200048004800840000000000000000008800E1
:10533000500050002000200020002000200000002D
:10534000000000000000F80008001000200020000D
:1053500040008000F8000000000000000000C000D5
:10536000800080008000800080008000800080003D
:10537000000000000000800080004000400040006D
:105380004000200020000000000000000000C000DD
:10539000400040004000400040004000400040000D
:1053A0000000000000004000A000A000A0000000DD
:1053B00000000000000000000000000000000000ED
:1053C0000000000000000000000000000000F800E5
:1053D000000000000000800040000000000000000D
:1053E00000000000000000000000000000000000BD
:1053F0000000E000100070009000900070000000BD
:1054000000000000000080008000A000D00090009C
:105410009000D000A000000000000000000000008C
:10542000000060009000800080009000600000009C
:10543000000000000000100010005000B0009000BC
:105440009000B000500000000000000000000000CC
:10545000000060009000F0008000900060000000FC
:10546000000000000000C0008000C000800080003C
:1054700080008000800000000000000000000000AC
:1054800000005000B00090009000B00050001000EC
:1054900000000000000080008000A000D00090000C
:1054A00090009000900000000000000000008000CC
:1054B00000008000800080008000800080000000EC
:1054C00000000000000080000000800080008000DC
:1054D000800080008000800000000000000080004C
:1054E00080009000A000C000A0009000900000008C
:1054F000000000000000800080008000800080002C
:10550000800080008000000000000000000000001B
:105510000000A600DA0092009200920092000000C3
:1055200000000000000000000000A000D00090007B
:1055300090009000900000000000000000000000BB
:10554000000060009000900090009000600000005B
:1055500000000000000000000000A000D00090004B
:105560009000D000A00080000000000000000000BB
:1055700000005000B00090009000B00050001000FB
:1055800000000000000000000000A000C00080003B
:10559000800080008000000000000000000000008B
:1055A0000000E0009000400020009000600000003B
:1055B00000000000000080008000C000800080002B
:1055C00080008000C000000000000000000000001B
:1055D00000009000900090009000B000500000008B
:1055E000000000000000000000008800880050005B
:1055F00050005000200000000000000000000000EB
:1056000000009200AA00AA00AA00AA00440000001C
:105610000000000000000000000088005000200092
:105620002000500088000000000000000000000082
:105630000000880050005000500020002000200092
:1056400000000000000000000000F000100020003A
:1056500040008000F0000000000000000000C000DA
:1056600080008000800000008000800080008000BA
:1056700000000000000080008000800080008000AA
:105680008000800080008000000000000000C0005A
:10569000400040004000200040004000400040002A
:1056A000000000000000000000000000E800B00062
:1056B00000000000000000000000000000000000EA
:1056C000E000A000A000A000A000A000E0000000FA
:1056D000000400080A000B00070007000000040097
:1056E0000400000004000000010000200080010010
:1056F0000020008000000200060000000D000F00E6
:105700000600280028004000000100028000000080
:105710004000000040000000000100000400000004
:105720000100000004000000400000004C57000889
:1057300000000020BC010000E401000868580008D7
:10574000BC0100201C150000742F000813FD221B53
:105750000819041379211B08C9081A99041AAD0CF9
:105760001AE9041133C201120813FD2E1B08F904B3
:105770001A1D041AAD041A79041ADD201BBD233446
:1057800019041AF1041355241B0859141A990C17FB
:1057900004030904120132021640830440572D020B
:1057A0000102034BF11BC9197C190413FD1E1408D7
:1057B000E11D1B089D041A3F441ACB0813C51B1B8F
:1057C00008D30413411A1B085704227C0218200234
:1057D00013FF1C090243771125C03209041B010283
:1057E0000B130524161001052401100901042402DD
:1057F00002052406170107058203081CFF0904ADF2
:10580000320A2E0705010240072A81071113D931F8
:105810001B088904134D3242081AB10C1A0D041AE0
:1058200055045A2D14411A91FC011619F82A040442
:105830003D06070809AA49AB1233130810121813C2
:10584000D04413080C120C13D04D1B080808111279
:105850004812401A087B2904411A180829046A20B2
:0858600014590829143100005D
:040000050800018965
:00000001FF
